{
  "contractName": "TestNetOracle",
  "abi": [
    {
      "constant": true,
      "inputs": [
        {
          "name": "loanTokenAddress",
          "type": "address"
        },
        {
          "name": "positionTokenAddress",
          "type": "address"
        },
        {
          "name": "collateralTokenAddress",
          "type": "address"
        },
        {
          "name": "loanTokenAmount",
          "type": "uint256"
        },
        {
          "name": "positionTokenAmount",
          "type": "uint256"
        },
        {
          "name": "collateralTokenAmount",
          "type": "uint256"
        }
      ],
      "name": "getCurrentMarginAmount",
      "outputs": [
        {
          "name": "",
          "type": "uint256"
        }
      ],
      "payable": false,
      "stateMutability": "view",
      "type": "function"
    },
    {
      "constant": false,
      "inputs": [
        {
          "components": [
            {
              "name": "loanTokenAddress",
              "type": "address"
            },
            {
              "name": "interestTokenAddress",
              "type": "address"
            },
            {
              "name": "collateralTokenAddress",
              "type": "address"
            },
            {
              "name": "oracleAddress",
              "type": "address"
            },
            {
              "name": "loanTokenAmount",
              "type": "uint256"
            },
            {
              "name": "interestAmount",
              "type": "uint256"
            },
            {
              "name": "initialMarginAmount",
              "type": "uint256"
            },
            {
              "name": "maintenanceMarginAmount",
              "type": "uint256"
            },
            {
              "name": "maxDurationUnixTimestampSec",
              "type": "uint256"
            },
            {
              "name": "loanOrderHash",
              "type": "bytes32"
            }
          ],
          "name": "loanOrder",
          "type": "tuple"
        },
        {
          "components": [
            {
              "name": "trader",
              "type": "address"
            },
            {
              "name": "collateralTokenAddressFilled",
              "type": "address"
            },
            {
              "name": "positionTokenAddressFilled",
              "type": "address"
            },
            {
              "name": "loanTokenAmountFilled",
              "type": "uint256"
            },
            {
              "name": "loanTokenAmountUsed",
              "type": "uint256"
            },
            {
              "name": "collateralTokenAmountFilled",
              "type": "uint256"
            },
            {
              "name": "positionTokenAmountFilled",
              "type": "uint256"
            },
            {
              "name": "loanStartUnixTimestampSec",
              "type": "uint256"
            },
            {
              "name": "loanEndUnixTimestampSec",
              "type": "uint256"
            },
            {
              "name": "active",
              "type": "bool"
            },
            {
              "name": "positionId",
              "type": "uint256"
            }
          ],
          "name": "loanPosition",
          "type": "tuple"
        },
        {
          "name": "loanTokenAmountNeeded",
          "type": "uint256"
        },
        {
          "name": "isLiquidation",
          "type": "bool"
        }
      ],
      "name": "processCollateral",
      "outputs": [
        {
          "name": "loanTokenAmountCovered",
          "type": "uint256"
        },
        {
          "name": "collateralTokenAmountUsed",
          "type": "uint256"
        }
      ],
      "payable": false,
      "stateMutability": "nonpayable",
      "type": "function"
    },
    {
      "constant": false,
      "inputs": [
        {
          "components": [
            {
              "name": "loanTokenAddress",
              "type": "address"
            },
            {
              "name": "interestTokenAddress",
              "type": "address"
            },
            {
              "name": "collateralTokenAddress",
              "type": "address"
            },
            {
              "name": "oracleAddress",
              "type": "address"
            },
            {
              "name": "loanTokenAmount",
              "type": "uint256"
            },
            {
              "name": "interestAmount",
              "type": "uint256"
            },
            {
              "name": "initialMarginAmount",
              "type": "uint256"
            },
            {
              "name": "maintenanceMarginAmount",
              "type": "uint256"
            },
            {
              "name": "maxDurationUnixTimestampSec",
              "type": "uint256"
            },
            {
              "name": "loanOrderHash",
              "type": "bytes32"
            }
          ],
          "name": "",
          "type": "tuple"
        },
        {
          "components": [
            {
              "name": "trader",
              "type": "address"
            },
            {
              "name": "collateralTokenAddressFilled",
              "type": "address"
            },
            {
              "name": "positionTokenAddressFilled",
              "type": "address"
            },
            {
              "name": "loanTokenAmountFilled",
              "type": "uint256"
            },
            {
              "name": "loanTokenAmountUsed",
              "type": "uint256"
            },
            {
              "name": "collateralTokenAmountFilled",
              "type": "uint256"
            },
            {
              "name": "positionTokenAmountFilled",
              "type": "uint256"
            },
            {
              "name": "loanStartUnixTimestampSec",
              "type": "uint256"
            },
            {
              "name": "loanEndUnixTimestampSec",
              "type": "uint256"
            },
            {
              "name": "active",
              "type": "bool"
            },
            {
              "name": "positionId",
              "type": "uint256"
            }
          ],
          "name": "",
          "type": "tuple"
        },
        {
          "name": "loanCloser",
          "type": "address"
        },
        {
          "name": "isLiquidation",
          "type": "bool"
        },
        {
          "name": "gasUsed",
          "type": "uint256"
        }
      ],
      "name": "didCloseLoan",
      "outputs": [
        {
          "name": "",
          "type": "bool"
        }
      ],
      "payable": false,
      "stateMutability": "nonpayable",
      "type": "function"
    },
    {
      "constant": false,
      "inputs": [
        {
          "name": "to",
          "type": "address"
        },
        {
          "name": "value",
          "type": "uint256"
        }
      ],
      "name": "transferEther",
      "outputs": [
        {
          "name": "",
          "type": "bool"
        }
      ],
      "payable": false,
      "stateMutability": "nonpayable",
      "type": "function"
    },
    {
      "constant": true,
      "inputs": [
        {
          "name": "sourceTokenAddress",
          "type": "address"
        },
        {
          "name": "destTokenAddress",
          "type": "address"
        },
        {
          "name": "sourceTokenAmount",
          "type": "uint256"
        }
      ],
      "name": "getTradeData",
      "outputs": [
        {
          "name": "sourceToDestRate",
          "type": "uint256"
        },
        {
          "name": "destTokenAmount",
          "type": "uint256"
        }
      ],
      "payable": false,
      "stateMutability": "view",
      "type": "function"
    },
    {
      "constant": true,
      "inputs": [],
      "name": "vaultContract",
      "outputs": [
        {
          "name": "",
          "type": "address"
        }
      ],
      "payable": false,
      "stateMutability": "view",
      "type": "function"
    },
    {
      "constant": true,
      "inputs": [],
      "name": "minInitialMarginAmount",
      "outputs": [
        {
          "name": "",
          "type": "uint256"
        }
      ],
      "payable": false,
      "stateMutability": "view",
      "type": "function"
    },
    {
      "constant": true,
      "inputs": [],
      "name": "kyberContract",
      "outputs": [
        {
          "name": "",
          "type": "address"
        }
      ],
      "payable": false,
      "stateMutability": "view",
      "type": "function"
    },
    {
      "constant": false,
      "inputs": [
        {
          "components": [
            {
              "name": "loanTokenAddress",
              "type": "address"
            },
            {
              "name": "interestTokenAddress",
              "type": "address"
            },
            {
              "name": "collateralTokenAddress",
              "type": "address"
            },
            {
              "name": "oracleAddress",
              "type": "address"
            },
            {
              "name": "loanTokenAmount",
              "type": "uint256"
            },
            {
              "name": "interestAmount",
              "type": "uint256"
            },
            {
              "name": "initialMarginAmount",
              "type": "uint256"
            },
            {
              "name": "maintenanceMarginAmount",
              "type": "uint256"
            },
            {
              "name": "maxDurationUnixTimestampSec",
              "type": "uint256"
            },
            {
              "name": "loanOrderHash",
              "type": "bytes32"
            }
          ],
          "name": "loanOrder",
          "type": "tuple"
        },
        {
          "components": [
            {
              "name": "trader",
              "type": "address"
            },
            {
              "name": "collateralTokenAddressFilled",
              "type": "address"
            },
            {
              "name": "positionTokenAddressFilled",
              "type": "address"
            },
            {
              "name": "loanTokenAmountFilled",
              "type": "uint256"
            },
            {
              "name": "loanTokenAmountUsed",
              "type": "uint256"
            },
            {
              "name": "collateralTokenAmountFilled",
              "type": "uint256"
            },
            {
              "name": "positionTokenAmountFilled",
              "type": "uint256"
            },
            {
              "name": "loanStartUnixTimestampSec",
              "type": "uint256"
            },
            {
              "name": "loanEndUnixTimestampSec",
              "type": "uint256"
            },
            {
              "name": "active",
              "type": "bool"
            },
            {
              "name": "positionId",
              "type": "uint256"
            }
          ],
          "name": "loanPosition",
          "type": "tuple"
        }
      ],
      "name": "verifyAndLiquidate",
      "outputs": [
        {
          "name": "destTokenAmount",
          "type": "uint256"
        }
      ],
      "payable": false,
      "stateMutability": "nonpayable",
      "type": "function"
    },
    {
      "constant": true,
      "inputs": [],
      "name": "emaPeriods",
      "outputs": [
        {
          "name": "",
          "type": "uint256"
        }
      ],
      "payable": false,
      "stateMutability": "view",
      "type": "function"
    },
    {
      "constant": false,
      "inputs": [
        {
          "components": [
            {
              "name": "loanTokenAddress",
              "type": "address"
            },
            {
              "name": "interestTokenAddress",
              "type": "address"
            },
            {
              "name": "collateralTokenAddress",
              "type": "address"
            },
            {
              "name": "oracleAddress",
              "type": "address"
            },
            {
              "name": "loanTokenAmount",
              "type": "uint256"
            },
            {
              "name": "interestAmount",
              "type": "uint256"
            },
            {
              "name": "initialMarginAmount",
              "type": "uint256"
            },
            {
              "name": "maintenanceMarginAmount",
              "type": "uint256"
            },
            {
              "name": "maxDurationUnixTimestampSec",
              "type": "uint256"
            },
            {
              "name": "loanOrderHash",
              "type": "bytes32"
            }
          ],
          "name": "",
          "type": "tuple"
        },
        {
          "components": [
            {
              "name": "trader",
              "type": "address"
            },
            {
              "name": "collateralTokenAddressFilled",
              "type": "address"
            },
            {
              "name": "positionTokenAddressFilled",
              "type": "address"
            },
            {
              "name": "loanTokenAmountFilled",
              "type": "uint256"
            },
            {
              "name": "loanTokenAmountUsed",
              "type": "uint256"
            },
            {
              "name": "collateralTokenAmountFilled",
              "type": "uint256"
            },
            {
              "name": "positionTokenAmountFilled",
              "type": "uint256"
            },
            {
              "name": "loanStartUnixTimestampSec",
              "type": "uint256"
            },
            {
              "name": "loanEndUnixTimestampSec",
              "type": "uint256"
            },
            {
              "name": "active",
              "type": "bool"
            },
            {
              "name": "positionId",
              "type": "uint256"
            }
          ],
          "name": "",
          "type": "tuple"
        },
        {
          "name": "",
          "type": "uint256"
        }
      ],
      "name": "didDepositCollateral",
      "outputs": [
        {
          "name": "",
          "type": "bool"
        }
      ],
      "payable": false,
      "stateMutability": "nonpayable",
      "type": "function"
    },
    {
      "constant": false,
      "inputs": [
        {
          "name": "newValue",
          "type": "uint256"
        },
        {
          "name": "enforce",
          "type": "bool"
        }
      ],
      "name": "setMinimumCollateralInWethAmount",
      "outputs": [],
      "payable": false,
      "stateMutability": "nonpayable",
      "type": "function"
    },
    {
      "constant": false,
      "inputs": [
        {
          "name": "newAddress",
          "type": "address"
        }
      ],
      "name": "setBZRxTokenContractAddress",
      "outputs": [],
      "payable": false,
      "stateMutability": "nonpayable",
      "type": "function"
    },
    {
      "constant": true,
      "inputs": [],
      "name": "wethContract",
      "outputs": [
        {
          "name": "",
          "type": "address"
        }
      ],
      "payable": false,
      "stateMutability": "view",
      "type": "function"
    },
    {
      "constant": false,
      "inputs": [
        {
          "name": "token",
          "type": "address"
        }
      ],
      "name": "setDecimals",
      "outputs": [],
      "payable": false,
      "stateMutability": "nonpayable",
      "type": "function"
    },
    {
      "constant": true,
      "inputs": [
        {
          "name": "positionTokenAddress",
          "type": "address"
        },
        {
          "name": "loanTokenAddress",
          "type": "address"
        },
        {
          "name": "positionTokenAmount",
          "type": "uint256"
        },
        {
          "name": "loanTokenAmount",
          "type": "uint256"
        }
      ],
      "name": "getProfitOrLoss",
      "outputs": [
        {
          "name": "isProfit",
          "type": "bool"
        },
        {
          "name": "profitOrLoss",
          "type": "uint256"
        }
      ],
      "payable": false,
      "stateMutability": "view",
      "type": "function"
    },
    {
      "constant": false,
      "inputs": [
        {
          "components": [
            {
              "name": "loanTokenAddress",
              "type": "address"
            },
            {
              "name": "interestTokenAddress",
              "type": "address"
            },
            {
              "name": "collateralTokenAddress",
              "type": "address"
            },
            {
              "name": "oracleAddress",
              "type": "address"
            },
            {
              "name": "loanTokenAmount",
              "type": "uint256"
            },
            {
              "name": "interestAmount",
              "type": "uint256"
            },
            {
              "name": "initialMarginAmount",
              "type": "uint256"
            },
            {
              "name": "maintenanceMarginAmount",
              "type": "uint256"
            },
            {
              "name": "maxDurationUnixTimestampSec",
              "type": "uint256"
            },
            {
              "name": "loanOrderHash",
              "type": "bytes32"
            }
          ],
          "name": "",
          "type": "tuple"
        },
        {
          "components": [
            {
              "name": "trader",
              "type": "address"
            },
            {
              "name": "collateralTokenAddressFilled",
              "type": "address"
            },
            {
              "name": "positionTokenAddressFilled",
              "type": "address"
            },
            {
              "name": "loanTokenAmountFilled",
              "type": "uint256"
            },
            {
              "name": "loanTokenAmountUsed",
              "type": "uint256"
            },
            {
              "name": "collateralTokenAmountFilled",
              "type": "uint256"
            },
            {
              "name": "positionTokenAmountFilled",
              "type": "uint256"
            },
            {
              "name": "loanStartUnixTimestampSec",
              "type": "uint256"
            },
            {
              "name": "loanEndUnixTimestampSec",
              "type": "uint256"
            },
            {
              "name": "active",
              "type": "bool"
            },
            {
              "name": "positionId",
              "type": "uint256"
            }
          ],
          "name": "",
          "type": "tuple"
        },
        {
          "name": "",
          "type": "uint256"
        },
        {
          "name": "",
          "type": "uint256"
        }
      ],
      "name": "didWithdrawProfit",
      "outputs": [
        {
          "name": "",
          "type": "bool"
        }
      ],
      "payable": false,
      "stateMutability": "nonpayable",
      "type": "function"
    },
    {
      "constant": true,
      "inputs": [
        {
          "name": "sourceTokenAddress",
          "type": "address"
        },
        {
          "name": "destTokenAddress",
          "type": "address"
        },
        {
          "name": "sourceTokenAmount",
          "type": "uint256"
        }
      ],
      "name": "isTradeSupported",
      "outputs": [
        {
          "name": "",
          "type": "bool"
        }
      ],
      "payable": false,
      "stateMutability": "view",
      "type": "function"
    },
    {
      "constant": false,
      "inputs": [
        {
          "components": [
            {
              "name": "loanTokenAddress",
              "type": "address"
            },
            {
              "name": "interestTokenAddress",
              "type": "address"
            },
            {
              "name": "collateralTokenAddress",
              "type": "address"
            },
            {
              "name": "oracleAddress",
              "type": "address"
            },
            {
              "name": "loanTokenAmount",
              "type": "uint256"
            },
            {
              "name": "interestAmount",
              "type": "uint256"
            },
            {
              "name": "initialMarginAmount",
              "type": "uint256"
            },
            {
              "name": "maintenanceMarginAmount",
              "type": "uint256"
            },
            {
              "name": "maxDurationUnixTimestampSec",
              "type": "uint256"
            },
            {
              "name": "loanOrderHash",
              "type": "bytes32"
            }
          ],
          "name": "",
          "type": "tuple"
        },
        {
          "name": "",
          "type": "address"
        },
        {
          "name": "",
          "type": "address"
        },
        {
          "name": "",
          "type": "uint256"
        }
      ],
      "name": "didChangeLenderOwnership",
      "outputs": [
        {
          "name": "",
          "type": "bool"
        }
      ],
      "payable": false,
      "stateMutability": "nonpayable",
      "type": "function"
    },
    {
      "constant": false,
      "inputs": [
        {
          "components": [
            {
              "name": "loanTokenAddress",
              "type": "address"
            },
            {
              "name": "interestTokenAddress",
              "type": "address"
            },
            {
              "name": "collateralTokenAddress",
              "type": "address"
            },
            {
              "name": "oracleAddress",
              "type": "address"
            },
            {
              "name": "loanTokenAmount",
              "type": "uint256"
            },
            {
              "name": "interestAmount",
              "type": "uint256"
            },
            {
              "name": "initialMarginAmount",
              "type": "uint256"
            },
            {
              "name": "maintenanceMarginAmount",
              "type": "uint256"
            },
            {
              "name": "maxDurationUnixTimestampSec",
              "type": "uint256"
            },
            {
              "name": "loanOrderHash",
              "type": "bytes32"
            }
          ],
          "name": "",
          "type": "tuple"
        },
        {
          "components": [
            {
              "name": "maker",
              "type": "address"
            },
            {
              "name": "feeRecipientAddress",
              "type": "address"
            },
            {
              "name": "lenderRelayFee",
              "type": "uint256"
            },
            {
              "name": "traderRelayFee",
              "type": "uint256"
            },
            {
              "name": "makerRole",
              "type": "uint256"
            },
            {
              "name": "expirationUnixTimestampSec",
              "type": "uint256"
            }
          ],
          "name": "",
          "type": "tuple"
        },
        {
          "components": [
            {
              "name": "trader",
              "type": "address"
            },
            {
              "name": "collateralTokenAddressFilled",
              "type": "address"
            },
            {
              "name": "positionTokenAddressFilled",
              "type": "address"
            },
            {
              "name": "loanTokenAmountFilled",
              "type": "uint256"
            },
            {
              "name": "loanTokenAmountUsed",
              "type": "uint256"
            },
            {
              "name": "collateralTokenAmountFilled",
              "type": "uint256"
            },
            {
              "name": "positionTokenAmountFilled",
              "type": "uint256"
            },
            {
              "name": "loanStartUnixTimestampSec",
              "type": "uint256"
            },
            {
              "name": "loanEndUnixTimestampSec",
              "type": "uint256"
            },
            {
              "name": "active",
              "type": "bool"
            },
            {
              "name": "positionId",
              "type": "uint256"
            }
          ],
          "name": "loanPosition",
          "type": "tuple"
        },
        {
          "name": "",
          "type": "address"
        },
        {
          "name": "",
          "type": "uint256"
        }
      ],
      "name": "didTakeOrder",
      "outputs": [
        {
          "name": "",
          "type": "bool"
        }
      ],
      "payable": false,
      "stateMutability": "nonpayable",
      "type": "function"
    },
    {
      "constant": true,
      "inputs": [],
      "name": "isManualTradingAllowed",
      "outputs": [
        {
          "name": "",
          "type": "bool"
        }
      ],
      "payable": false,
      "stateMutability": "view",
      "type": "function"
    },
    {
      "constant": false,
      "inputs": [
        {
          "name": "tokens",
          "type": "address[]"
        }
      ],
      "name": "setDecimalsBatch",
      "outputs": [],
      "payable": false,
      "stateMutability": "nonpayable",
      "type": "function"
    },
    {
      "constant": false,
      "inputs": [
        {
          "name": "newValue",
          "type": "uint256"
        }
      ],
      "name": "setGasUpperBound",
      "outputs": [],
      "payable": false,
      "stateMutability": "nonpayable",
      "type": "function"
    },
    {
      "constant": true,
      "inputs": [],
      "name": "bountyRewardPercent",
      "outputs": [
        {
          "name": "",
          "type": "uint256"
        }
      ],
      "payable": false,
      "stateMutability": "view",
      "type": "function"
    },
    {
      "constant": false,
      "inputs": [],
      "name": "renounceOwnership",
      "outputs": [],
      "payable": false,
      "stateMutability": "nonpayable",
      "type": "function"
    },
    {
      "constant": false,
      "inputs": [
        {
          "name": "newBZxContractAddress",
          "type": "address"
        }
      ],
      "name": "transferBZxOwnership",
      "outputs": [],
      "payable": false,
      "stateMutability": "nonpayable",
      "type": "function"
    },
    {
      "constant": true,
      "inputs": [],
      "name": "throwOnGasRefundFail",
      "outputs": [
        {
          "name": "",
          "type": "bool"
        }
      ],
      "payable": false,
      "stateMutability": "view",
      "type": "function"
    },
    {
      "constant": false,
      "inputs": [
        {
          "components": [
            {
              "name": "loanTokenAddress",
              "type": "address"
            },
            {
              "name": "interestTokenAddress",
              "type": "address"
            },
            {
              "name": "collateralTokenAddress",
              "type": "address"
            },
            {
              "name": "oracleAddress",
              "type": "address"
            },
            {
              "name": "loanTokenAmount",
              "type": "uint256"
            },
            {
              "name": "interestAmount",
              "type": "uint256"
            },
            {
              "name": "initialMarginAmount",
              "type": "uint256"
            },
            {
              "name": "maintenanceMarginAmount",
              "type": "uint256"
            },
            {
              "name": "maxDurationUnixTimestampSec",
              "type": "uint256"
            },
            {
              "name": "loanOrderHash",
              "type": "bytes32"
            }
          ],
          "name": "",
          "type": "tuple"
        },
        {
          "components": [
            {
              "name": "trader",
              "type": "address"
            },
            {
              "name": "collateralTokenAddressFilled",
              "type": "address"
            },
            {
              "name": "positionTokenAddressFilled",
              "type": "address"
            },
            {
              "name": "loanTokenAmountFilled",
              "type": "uint256"
            },
            {
              "name": "loanTokenAmountUsed",
              "type": "uint256"
            },
            {
              "name": "collateralTokenAmountFilled",
              "type": "uint256"
            },
            {
              "name": "positionTokenAmountFilled",
              "type": "uint256"
            },
            {
              "name": "loanStartUnixTimestampSec",
              "type": "uint256"
            },
            {
              "name": "loanEndUnixTimestampSec",
              "type": "uint256"
            },
            {
              "name": "active",
              "type": "bool"
            },
            {
              "name": "positionId",
              "type": "uint256"
            }
          ],
          "name": "",
          "type": "tuple"
        },
        {
          "name": "",
          "type": "uint256"
        }
      ],
      "name": "didChangeCollateral",
      "outputs": [
        {
          "name": "",
          "type": "bool"
        }
      ],
      "payable": false,
      "stateMutability": "nonpayable",
      "type": "function"
    },
    {
      "constant": true,
      "inputs": [],
      "name": "bZRxTokenContract",
      "outputs": [
        {
          "name": "",
          "type": "address"
        }
      ],
      "payable": false,
      "stateMutability": "view",
      "type": "function"
    },
    {
      "constant": false,
      "inputs": [
        {
          "components": [
            {
              "name": "loanTokenAddress",
              "type": "address"
            },
            {
              "name": "interestTokenAddress",
              "type": "address"
            },
            {
              "name": "collateralTokenAddress",
              "type": "address"
            },
            {
              "name": "oracleAddress",
              "type": "address"
            },
            {
              "name": "loanTokenAmount",
              "type": "uint256"
            },
            {
              "name": "interestAmount",
              "type": "uint256"
            },
            {
              "name": "initialMarginAmount",
              "type": "uint256"
            },
            {
              "name": "maintenanceMarginAmount",
              "type": "uint256"
            },
            {
              "name": "maxDurationUnixTimestampSec",
              "type": "uint256"
            },
            {
              "name": "loanOrderHash",
              "type": "bytes32"
            }
          ],
          "name": "",
          "type": "tuple"
        },
        {
          "name": "",
          "type": "address"
        },
        {
          "name": "",
          "type": "uint256"
        },
        {
          "name": "",
          "type": "uint256"
        },
        {
          "name": "",
          "type": "uint256"
        }
      ],
      "name": "didIncreaseLoanableAmount",
      "outputs": [
        {
          "name": "",
          "type": "bool"
        }
      ],
      "payable": false,
      "stateMutability": "nonpayable",
      "type": "function"
    },
    {
      "constant": false,
      "inputs": [
        {
          "name": "sourceTokenAddress",
          "type": "address"
        },
        {
          "name": "destTokenAddress",
          "type": "address"
        },
        {
          "name": "sourceTokenAmount",
          "type": "uint256"
        }
      ],
      "name": "doManualTrade",
      "outputs": [
        {
          "name": "destTokenAmount",
          "type": "uint256"
        }
      ],
      "payable": false,
      "stateMutability": "nonpayable",
      "type": "function"
    },
    {
      "constant": true,
      "inputs": [],
      "name": "outlierAdder",
      "outputs": [
        {
          "name": "",
          "type": "uint256"
        }
      ],
      "payable": false,
      "stateMutability": "view",
      "type": "function"
    },
    {
      "constant": false,
      "inputs": [
        {
          "components": [
            {
              "name": "loanTokenAddress",
              "type": "address"
            },
            {
              "name": "interestTokenAddress",
              "type": "address"
            },
            {
              "name": "collateralTokenAddress",
              "type": "address"
            },
            {
              "name": "oracleAddress",
              "type": "address"
            },
            {
              "name": "loanTokenAmount",
              "type": "uint256"
            },
            {
              "name": "interestAmount",
              "type": "uint256"
            },
            {
              "name": "initialMarginAmount",
              "type": "uint256"
            },
            {
              "name": "maintenanceMarginAmount",
              "type": "uint256"
            },
            {
              "name": "maxDurationUnixTimestampSec",
              "type": "uint256"
            },
            {
              "name": "loanOrderHash",
              "type": "bytes32"
            }
          ],
          "name": "",
          "type": "tuple"
        },
        {
          "components": [
            {
              "name": "trader",
              "type": "address"
            },
            {
              "name": "collateralTokenAddressFilled",
              "type": "address"
            },
            {
              "name": "positionTokenAddressFilled",
              "type": "address"
            },
            {
              "name": "loanTokenAmountFilled",
              "type": "uint256"
            },
            {
              "name": "loanTokenAmountUsed",
              "type": "uint256"
            },
            {
              "name": "collateralTokenAmountFilled",
              "type": "uint256"
            },
            {
              "name": "positionTokenAmountFilled",
              "type": "uint256"
            },
            {
              "name": "loanStartUnixTimestampSec",
              "type": "uint256"
            },
            {
              "name": "loanEndUnixTimestampSec",
              "type": "uint256"
            },
            {
              "name": "active",
              "type": "bool"
            },
            {
              "name": "positionId",
              "type": "uint256"
            }
          ],
          "name": "",
          "type": "tuple"
        },
        {
          "name": "",
          "type": "address"
        },
        {
          "name": "",
          "type": "uint256"
        }
      ],
      "name": "didChangeTraderOwnership",
      "outputs": [
        {
          "name": "",
          "type": "bool"
        }
      ],
      "payable": false,
      "stateMutability": "nonpayable",
      "type": "function"
    },
    {
      "constant": false,
      "inputs": [
        {
          "name": "newInitialMargin",
          "type": "uint256"
        },
        {
          "name": "newMaintenanceMargin",
          "type": "uint256"
        }
      ],
      "name": "setMarginThresholds",
      "outputs": [],
      "payable": false,
      "stateMutability": "nonpayable",
      "type": "function"
    },
    {
      "constant": false,
      "inputs": [
        {
          "name": "newAddress",
          "type": "address"
        }
      ],
      "name": "setVaultContractAddress",
      "outputs": [],
      "payable": false,
      "stateMutability": "nonpayable",
      "type": "function"
    },
    {
      "constant": false,
      "inputs": [
        {
          "name": "newRate",
          "type": "uint256"
        }
      ],
      "name": "setInterestFeePercent",
      "outputs": [],
      "payable": false,
      "stateMutability": "nonpayable",
      "type": "function"
    },
    {
      "constant": true,
      "inputs": [],
      "name": "owner",
      "outputs": [
        {
          "name": "",
          "type": "address"
        }
      ],
      "payable": false,
      "stateMutability": "view",
      "type": "function"
    },
    {
      "constant": true,
      "inputs": [],
      "name": "outlierMultiplier",
      "outputs": [
        {
          "name": "",
          "type": "uint256"
        }
      ],
      "payable": false,
      "stateMutability": "view",
      "type": "function"
    },
    {
      "constant": false,
      "inputs": [
        {
          "components": [
            {
              "name": "loanTokenAddress",
              "type": "address"
            },
            {
              "name": "interestTokenAddress",
              "type": "address"
            },
            {
              "name": "collateralTokenAddress",
              "type": "address"
            },
            {
              "name": "oracleAddress",
              "type": "address"
            },
            {
              "name": "loanTokenAmount",
              "type": "uint256"
            },
            {
              "name": "interestAmount",
              "type": "uint256"
            },
            {
              "name": "initialMarginAmount",
              "type": "uint256"
            },
            {
              "name": "maintenanceMarginAmount",
              "type": "uint256"
            },
            {
              "name": "maxDurationUnixTimestampSec",
              "type": "uint256"
            },
            {
              "name": "loanOrderHash",
              "type": "bytes32"
            }
          ],
          "name": "loanOrder",
          "type": "tuple"
        },
        {
          "name": "lender",
          "type": "address"
        },
        {
          "name": "amountOwed",
          "type": "uint256"
        },
        {
          "name": "convert",
          "type": "bool"
        },
        {
          "name": "",
          "type": "uint256"
        }
      ],
      "name": "didPayInterest",
      "outputs": [
        {
          "name": "",
          "type": "bool"
        }
      ],
      "payable": false,
      "stateMutability": "nonpayable",
      "type": "function"
    },
    {
      "constant": false,
      "inputs": [
        {
          "components": [
            {
              "name": "loanTokenAddress",
              "type": "address"
            },
            {
              "name": "interestTokenAddress",
              "type": "address"
            },
            {
              "name": "collateralTokenAddress",
              "type": "address"
            },
            {
              "name": "oracleAddress",
              "type": "address"
            },
            {
              "name": "loanTokenAmount",
              "type": "uint256"
            },
            {
              "name": "interestAmount",
              "type": "uint256"
            },
            {
              "name": "initialMarginAmount",
              "type": "uint256"
            },
            {
              "name": "maintenanceMarginAmount",
              "type": "uint256"
            },
            {
              "name": "maxDurationUnixTimestampSec",
              "type": "uint256"
            },
            {
              "name": "loanOrderHash",
              "type": "bytes32"
            }
          ],
          "name": "loanOrder",
          "type": "tuple"
        },
        {
          "components": [
            {
              "name": "trader",
              "type": "address"
            },
            {
              "name": "collateralTokenAddressFilled",
              "type": "address"
            },
            {
              "name": "positionTokenAddressFilled",
              "type": "address"
            },
            {
              "name": "loanTokenAmountFilled",
              "type": "uint256"
            },
            {
              "name": "loanTokenAmountUsed",
              "type": "uint256"
            },
            {
              "name": "collateralTokenAmountFilled",
              "type": "uint256"
            },
            {
              "name": "positionTokenAmountFilled",
              "type": "uint256"
            },
            {
              "name": "loanStartUnixTimestampSec",
              "type": "uint256"
            },
            {
              "name": "loanEndUnixTimestampSec",
              "type": "uint256"
            },
            {
              "name": "active",
              "type": "bool"
            },
            {
              "name": "positionId",
              "type": "uint256"
            }
          ],
          "name": "loanPosition",
          "type": "tuple"
        },
        {
          "name": "",
          "type": "uint256"
        }
      ],
      "name": "didTradePosition",
      "outputs": [
        {
          "name": "",
          "type": "bool"
        }
      ],
      "payable": false,
      "stateMutability": "nonpayable",
      "type": "function"
    },
    {
      "constant": false,
      "inputs": [
        {
          "components": [
            {
              "name": "loanTokenAddress",
              "type": "address"
            },
            {
              "name": "interestTokenAddress",
              "type": "address"
            },
            {
              "name": "collateralTokenAddress",
              "type": "address"
            },
            {
              "name": "oracleAddress",
              "type": "address"
            },
            {
              "name": "loanTokenAmount",
              "type": "uint256"
            },
            {
              "name": "interestAmount",
              "type": "uint256"
            },
            {
              "name": "initialMarginAmount",
              "type": "uint256"
            },
            {
              "name": "maintenanceMarginAmount",
              "type": "uint256"
            },
            {
              "name": "maxDurationUnixTimestampSec",
              "type": "uint256"
            },
            {
              "name": "loanOrderHash",
              "type": "bytes32"
            }
          ],
          "name": "",
          "type": "tuple"
        },
        {
          "components": [
            {
              "name": "trader",
              "type": "address"
            },
            {
              "name": "collateralTokenAddressFilled",
              "type": "address"
            },
            {
              "name": "positionTokenAddressFilled",
              "type": "address"
            },
            {
              "name": "loanTokenAmountFilled",
              "type": "uint256"
            },
            {
              "name": "loanTokenAmountUsed",
              "type": "uint256"
            },
            {
              "name": "collateralTokenAmountFilled",
              "type": "uint256"
            },
            {
              "name": "positionTokenAmountFilled",
              "type": "uint256"
            },
            {
              "name": "loanStartUnixTimestampSec",
              "type": "uint256"
            },
            {
              "name": "loanEndUnixTimestampSec",
              "type": "uint256"
            },
            {
              "name": "active",
              "type": "bool"
            },
            {
              "name": "positionId",
              "type": "uint256"
            }
          ],
          "name": "",
          "type": "tuple"
        },
        {
          "name": "",
          "type": "uint256"
        }
      ],
      "name": "didWithdrawCollateral",
      "outputs": [
        {
          "name": "",
          "type": "bool"
        }
      ],
      "payable": false,
      "stateMutability": "nonpayable",
      "type": "function"
    },
    {
      "constant": true,
      "inputs": [],
      "name": "emaValue",
      "outputs": [
        {
          "name": "",
          "type": "uint256"
        }
      ],
      "payable": false,
      "stateMutability": "view",
      "type": "function"
    },
    {
      "constant": true,
      "inputs": [],
      "name": "minMaintenanceMarginAmount",
      "outputs": [
        {
          "name": "",
          "type": "uint256"
        }
      ],
      "payable": false,
      "stateMutability": "view",
      "type": "function"
    },
    {
      "constant": false,
      "inputs": [
        {
          "name": "newValue",
          "type": "uint256"
        }
      ],
      "name": "setBountyRewardPercent",
      "outputs": [],
      "payable": false,
      "stateMutability": "nonpayable",
      "type": "function"
    },
    {
      "constant": true,
      "inputs": [
        {
          "name": "",
          "type": "bytes32"
        },
        {
          "name": "",
          "type": "address"
        },
        {
          "name": "loanTokenAddress",
          "type": "address"
        },
        {
          "name": "positionTokenAddress",
          "type": "address"
        },
        {
          "name": "collateralTokenAddress",
          "type": "address"
        },
        {
          "name": "loanTokenAmount",
          "type": "uint256"
        },
        {
          "name": "positionTokenAmount",
          "type": "uint256"
        },
        {
          "name": "collateralTokenAmount",
          "type": "uint256"
        },
        {
          "name": "maintenanceMarginAmount",
          "type": "uint256"
        }
      ],
      "name": "shouldLiquidate",
      "outputs": [
        {
          "name": "",
          "type": "bool"
        }
      ],
      "payable": false,
      "stateMutability": "view",
      "type": "function"
    },
    {
      "constant": false,
      "inputs": [
        {
          "name": "_isManualTradingAllowed",
          "type": "bool"
        }
      ],
      "name": "setManualTradingAllowed",
      "outputs": [],
      "payable": false,
      "stateMutability": "nonpayable",
      "type": "function"
    },
    {
      "constant": false,
      "inputs": [
        {
          "name": "sourceTokenAddress",
          "type": "address"
        },
        {
          "name": "destTokenAddress",
          "type": "address"
        },
        {
          "name": "sourceTokenAmount",
          "type": "uint256"
        }
      ],
      "name": "doTrade",
      "outputs": [
        {
          "name": "destTokenAmount",
          "type": "uint256"
        }
      ],
      "payable": false,
      "stateMutability": "nonpayable",
      "type": "function"
    },
    {
      "constant": true,
      "inputs": [],
      "name": "gasUpperBound",
      "outputs": [
        {
          "name": "",
          "type": "uint256"
        }
      ],
      "payable": false,
      "stateMutability": "view",
      "type": "function"
    },
    {
      "constant": false,
      "inputs": [
        {
          "name": "_newEMAPeriods",
          "type": "uint256"
        }
      ],
      "name": "setEMAPeriods",
      "outputs": [],
      "payable": false,
      "stateMutability": "nonpayable",
      "type": "function"
    },
    {
      "constant": false,
      "inputs": [
        {
          "name": "newAddress",
          "type": "address"
        }
      ],
      "name": "setKyberContractAddress",
      "outputs": [],
      "payable": false,
      "stateMutability": "nonpayable",
      "type": "function"
    },
    {
      "constant": true,
      "inputs": [],
      "name": "faucetContract",
      "outputs": [
        {
          "name": "",
          "type": "address"
        }
      ],
      "payable": false,
      "stateMutability": "view",
      "type": "function"
    },
    {
      "constant": false,
      "inputs": [
        {
          "name": "_newEMAValue",
          "type": "uint256"
        }
      ],
      "name": "setEMAValue",
      "outputs": [],
      "payable": false,
      "stateMutability": "nonpayable",
      "type": "function"
    },
    {
      "constant": true,
      "inputs": [],
      "name": "bZxContractAddress",
      "outputs": [
        {
          "name": "",
          "type": "address"
        }
      ],
      "payable": false,
      "stateMutability": "view",
      "type": "function"
    },
    {
      "constant": true,
      "inputs": [],
      "name": "minimumCollateralInWethAmount",
      "outputs": [
        {
          "name": "",
          "type": "uint256"
        }
      ],
      "payable": false,
      "stateMutability": "view",
      "type": "function"
    },
    {
      "constant": true,
      "inputs": [],
      "name": "enforceMinimum",
      "outputs": [
        {
          "name": "",
          "type": "bool"
        }
      ],
      "payable": false,
      "stateMutability": "view",
      "type": "function"
    },
    {
      "constant": false,
      "inputs": [
        {
          "name": "newAddress",
          "type": "address"
        }
      ],
      "name": "setWethContractAddress",
      "outputs": [],
      "payable": false,
      "stateMutability": "nonpayable",
      "type": "function"
    },
    {
      "constant": false,
      "inputs": [
        {
          "name": "newOwner",
          "type": "address"
        }
      ],
      "name": "transferOwnership",
      "outputs": [],
      "payable": false,
      "stateMutability": "nonpayable",
      "type": "function"
    },
    {
      "constant": false,
      "inputs": [
        {
          "name": "tokenAddress",
          "type": "address"
        },
        {
          "name": "to",
          "type": "address"
        },
        {
          "name": "value",
          "type": "uint256"
        }
      ],
      "name": "transferToken",
      "outputs": [
        {
          "name": "",
          "type": "bool"
        }
      ],
      "payable": false,
      "stateMutability": "nonpayable",
      "type": "function"
    },
    {
      "constant": true,
      "inputs": [
        {
          "name": "",
          "type": "uint256"
        }
      ],
      "name": "collateralInWethAmounts",
      "outputs": [
        {
          "name": "",
          "type": "uint256"
        }
      ],
      "payable": false,
      "stateMutability": "view",
      "type": "function"
    },
    {
      "constant": true,
      "inputs": [],
      "name": "interestFeePercent",
      "outputs": [
        {
          "name": "",
          "type": "uint256"
        }
      ],
      "payable": false,
      "stateMutability": "view",
      "type": "function"
    },
    {
      "inputs": [
        {
          "name": "_vaultContract",
          "type": "address"
        },
        {
          "name": "_kyberContract",
          "type": "address"
        },
        {
          "name": "_wethContract",
          "type": "address"
        },
        {
          "name": "_bZRxTokenContract",
          "type": "address"
        }
      ],
      "payable": true,
      "stateMutability": "payable",
      "type": "constructor"
    },
    {
      "payable": true,
      "stateMutability": "payable",
      "type": "fallback"
    },
    {
      "anonymous": false,
      "inputs": [
        {
          "indexed": true,
          "name": "previousBZxContract",
          "type": "address"
        },
        {
          "indexed": true,
          "name": "newBZxContract",
          "type": "address"
        }
      ],
      "name": "BZxOwnershipTransferred",
      "type": "event"
    },
    {
      "anonymous": false,
      "inputs": [
        {
          "indexed": true,
          "name": "previousOwner",
          "type": "address"
        }
      ],
      "name": "OwnershipRenounced",
      "type": "event"
    },
    {
      "anonymous": false,
      "inputs": [
        {
          "indexed": true,
          "name": "previousOwner",
          "type": "address"
        },
        {
          "indexed": true,
          "name": "newOwner",
          "type": "address"
        }
      ],
      "name": "OwnershipTransferred",
      "type": "event"
    },
    {
      "anonymous": false,
      "inputs": [
        {
          "indexed": true,
          "name": "payer",
          "type": "address"
        },
        {
          "indexed": false,
          "name": "gasUsed",
          "type": "uint256"
        },
        {
          "indexed": false,
          "name": "currentGasPrice",
          "type": "uint256"
        },
        {
          "indexed": false,
          "name": "refundAmount",
          "type": "uint256"
        },
        {
          "indexed": false,
          "name": "refundSuccess",
          "type": "bool"
        }
      ],
      "name": "GasRefund",
      "type": "event"
    },
    {
      "constant": false,
      "inputs": [
        {
          "name": "newAddress",
          "type": "address"
        }
      ],
      "name": "setFaucetContractAddress",
      "outputs": [],
      "payable": false,
      "stateMutability": "nonpayable",
      "type": "function"
    }
  ],
  "bytecode": "0x6080604081905260028055621dcd656003556004805460ff199081169091556706f05b59d3b200006007556008805482169055600a6009819055606e9055620927c0600b556000600c556019600d55600e8054909116600117905580806200382b813981018060405262000077919081019062000110565b6004805461010033810261010060a860020a031992831617909255600e8054600160a060020a0397881690930292909116919091179055600f8054938516600160a060020a031994851617905560108054928516928416929092179091556011805493909116929091169190911790556401dcd65000600055600a60015562000186565b60006200010982516200017a565b9392505050565b600080600080608085870312156200012757600080fd5b6000620001358787620000fb565b94505060206200014887828801620000fb565b93505060406200015b87828801620000fb565b92505060606200016e87828801620000fb565b91505092959194509250565b600160a060020a031690565b61369580620001966000396000f3006080604052600436106102ba5763ffffffff60e060020a600035041662432cf381146102bc578063016d7c64146102f257806302d8edbe14610320578063054ec3641461034d57806305b1137b1461036d57806306599aa01461038d5780632274346b146103ad57806326e010c8146103cf5780632aed1390146103e45780632c2e736c146103f95780632c9f6792146104195780632ca5f8b81461042e5780632ce334ba1461044e57806341ce9f0e1461046e5780634780eac11461048e5780634a00709d146104a35780635376a03d146104c3578063592d365d146104f15780635a1e921b146105115780635bdf0751146105315780635c6de0af1461054c5780635d8e0c2c1461056c5780635e19a6eb1461058157806363621532146105a1578063669f6d80146105c1578063715018a6146105d657806372e98a79146105eb578063754efc981461060b5780637724d39a1461042e578063779dec5b1461062057806377fa94f1146106355780637c06db04146106555780637ca7cbc1146106755780637d0cdec31461068a5780638605c97e146106a5578063871105cc146106c55780638c9f7074146106e55780638da5cb5b14610705578063903509d61461071a578063998bd4721461072f5780639a2c28641461074f5780639ebfeb871461042e578063a48205cb1461076f578063af2bf02714610784578063b5c9fa0a14610799578063be3daf55146107b9578063c4cae886146107d9578063cb33e7fa146107f9578063cc11a3b614610819578063cc6776791461082e578063d28a4f9e1461084e578063d7fbbf9a1461086e578063e2506eab14610883578063e4a72b13146108a3578063e5e47582146108b8578063f0ad0b7f146108cd578063f1cf5b38146108e2578063f2fde38b14610902578063f5537ede14610922578063fbb7f23214610942578063fe8925f414610962575b005b3480156102c857600080fd5b506102dc6102d73660046128e9565b610977565b6040516102e99190613594565b60405180910390f35b3480156102fe57600080fd5b5061031261030d366004612e84565b610a9b565b6040516102e99291906135a2565b34801561032c57600080fd5b5061034061033b366004612d78565b610d7f565b6040516102e9919061348a565b34801561035957600080fd5b506102ba6103683660046128cb565b610ddd565b34801561037957600080fd5b50610340610388366004612a1e565b610e59565b34801561039957600080fd5b506103126103a8366004612970565b610e8b565b3480156103b957600080fd5b506103c2610ec3565b6040516102e99190613439565b3480156103db57600080fd5b506102dc610ed7565b3480156103f057600080fd5b506103c2610edd565b34801561040557600080fd5b506102dc610414366004612d46565b610eec565b34801561042557600080fd5b506102dc610f78565b34801561043a57600080fd5b50610340610449366004612e3e565b610f7e565b34801561045a57600080fd5b506102ba610469366004612f60565b610fc3565b34801561047a57600080fd5b506102ba6104893660046128cb565b611011565b34801561049a57600080fd5b506103c261108d565b3480156104af57600080fd5b506102ba6104be366004612b8d565b61109c565b3480156104cf57600080fd5b506104e36104de3660046129bd565b611135565b6040516102e9929190613498565b3480156104fd57600080fd5b5061034061050c366004612edd565b6111c0565b34801561051d57600080fd5b5061034061052c366004612970565b611206565b34801561053d57600080fd5b5061034061050c366004612bab565b34801561055857600080fd5b50610340610567366004612cd9565b61124e565b34801561057857600080fd5b50610340611369565b34801561058d57600080fd5b506102ba61059c366004612a58565b611372565b3480156105ad57600080fd5b506102ba6105bc366004612f24565b61144b565b3480156105cd57600080fd5b506102dc61147b565b3480156105e257600080fd5b506102ba611481565b3480156105f757600080fd5b506102ba6106063660046128cb565b6114f9565b34801561061757600080fd5b506103406115ca565b34801561062c57600080fd5b506103c26115d3565b34801561064157600080fd5b50610340610650366004612c7e565b6115e2565b34801561066157600080fd5b506102dc610670366004612970565b61161f565b34801561068157600080fd5b506102dc611693565b34801561069657600080fd5b5061034061050c366004612de5565b3480156106b157600080fd5b506102ba6106c0366004612f90565b611699565b3480156106d157600080fd5b506102ba6106e03660046128cb565b6116cd565b3480156106f157600080fd5b506102ba610700366004612f24565b611754565b34801561071157600080fd5b506103c2611793565b34801561072657600080fd5b506102dc6117a7565b34801561073b57600080fd5b5061034061074a366004612c04565b6117ad565b34801561075b57600080fd5b5061034061076a366004612e3e565b6118af565b34801561077b57600080fd5b506102dc611951565b34801561079057600080fd5b506102dc611957565b3480156107a557600080fd5b506102ba6107b4366004612f24565b61195d565b3480156107c557600080fd5b506103406107d4366004612ac9565b61198d565b3480156107e557600080fd5b506102ba6107f4366004612a8d565b6119c5565b34801561080557600080fd5b506102dc610814366004612970565b611a03565b34801561082557600080fd5b506102dc611a4b565b34801561083a57600080fd5b506102ba610849366004612f24565b611a51565b34801561085a57600080fd5b506102ba6108693660046128cb565b611a8f565b34801561087a57600080fd5b506103c2611b0b565b34801561088f57600080fd5b506102ba61089e366004612f24565b611b1a565b3480156108af57600080fd5b506103c2611b4a565b3480156108c457600080fd5b506102dc611b59565b3480156108d957600080fd5b50610340611b5f565b3480156108ee57600080fd5b506102ba6108fd3660046128cb565b611b68565b34801561090e57600080fd5b506102ba61091d3660046128cb565b611be4565b34801561092e57600080fd5b5061034061093d366004612970565b611cbb565b34801561094e57600080fd5b506102dc61095d366004612f24565b611ce5565b34801561096e57600080fd5b506102dc611cf7565b60008060008060008a600160a060020a031689600160a060020a031614156109a1578593506109ec565b6109ad898c6000611cfd565b5092508215156109c05760009450610a8d565b6109e96109cd8a8d611d44565b6109dd888663ffffffff611eb116565b9063ffffffff611eda16565b93505b8a600160a060020a03168a600160a060020a03161415610a0e57869150610a4d565b610a1a8a8c6000611cfd565b509050801515610a2d5760009450610a8d565b610a4a610a3a8b8d611d44565b6109dd898463ffffffff611eb116565b91505b610a8a886109dd68056bc75e2d63100000610a7e83610a728a8963ffffffff611eef16565b9063ffffffff611efc16565b9063ffffffff611eb116565b94505b505050509695505050505050565b600554600090819081908190600160a060020a03163314610ada5760405160e560020a62461bcd028152600401610ad190613514565b60405180910390fd5b8480610ae65750600086115b1515610b075760405160e560020a62461bcd028152600401610ad190613584565b8660200151600160a060020a03166370a08231611387306040518363ffffffff1660e060020a028152600401610b3d91906134a6565b602060405180830381600088803b158015610b5757600080fd5b5087f1158015610b6b573d6000803e3d6000fd5b50505050506040513d601f19601f82011682018060405250610b909190810190612f42565b91508660a00151821015610bb95760405160e560020a62461bcd028152600401610ad190613504565b610bd2876020015189600001518960a001518989611f0e565b90506000861115610c825760075461014088015160009081526012602052604090205410801590610c135750600c541580610c135750600c548860c0015110155b8015610c2f5750600d541580610c2f5750600d548860e0015110155b15610c5f578751600e54610c58919060ff60020a906101009004600160a060020a031689611fcd565b9350610c82565b8751600e54610c7f919083906101009004600160a060020a031689611fcd565b93505b610d1b8760200151600160a060020a03166370a08231611387306040518363ffffffff1660e060020a028152600401610cbb91906134a6565b602060405180830381600088803b158015610cd557600080fd5b5087f1158015610ce9573d6000803e3d6000fd5b50505050506040513d601f19601f82011682018060405250610d0e9190810190612f42565b839063ffffffff611efc16565b92508660a00151831015610d7457610d538760200151600e60019054906101000a9004600160a060020a0316858a60a001510361209f565b1515610d745760405160e560020a62461bcd028152600401610ad1906134d4565b505094509492505050565b600554600090600160a060020a03163314610daf5760405160e560020a62461bcd028152600401610ad190613514565b3a8315610dc657610dc68584600054600a546120b7565b60019150610dd3816120e5565b5095945050505050565b6004546101009004600160a060020a03163314610df957600080fd5b601354600160a060020a03828116911614801590610e1f5750600160a060020a03811615155b1515610e2a57600080fd5b6013805473ffffffffffffffffffffffffffffffffffffffff1916600160a060020a0392909216919091179055565b6004546000906101009004600160a060020a03163314610e7857600080fd5b610e828383612181565b90505b92915050565b600080610e99858585611cfd565b509150610eb9610ea98686611d44565b6109dd858563ffffffff611eb116565b9050935093915050565b600e546101009004600160a060020a031681565b600c5481565b600f54600160a060020a031681565b600554600090600160a060020a03163314610f1c5760405160e560020a62461bcd028152600401610ad190613514565b610f4e6000600102600085600001518560400151866020015187606001518860c001518960a001518b60e0015161198d565b1515610f5c57506000610e85565b610e82826040015184600001518460c0015160ff60020a6121bd565b60015481565b600554600090600160a060020a03163314610fae5760405160e560020a62461bcd028152600401610ad190613514565b5060013a610fbb816120e5565b509392505050565b6004546101009004600160a060020a03163314610fdf57600080fd5b6007548214610fee5760078290555b60085460ff1615158115151461100d576008805460ff19168215151790555b5050565b6004546101009004600160a060020a0316331461102d57600080fd5b601154600160a060020a038281169116148015906110535750600160a060020a03811615155b151561105e57600080fd5b6011805473ffffffffffffffffffffffffffffffffffffffff1916600160a060020a0392909216919091179055565b601054600160a060020a031681565b80600160a060020a031663313ce5676040518163ffffffff1660e060020a028152600401602060405180830381600087803b1580156110da57600080fd5b505af11580156110ee573d6000803e3d6000fd5b505050506040513d601f19601f820116820180604052506111129190810190612faf565b600160a060020a03909116600090815260066020526040902060ff919091169055565b60008060008086600160a060020a031688600160a060020a0316141561115d57849150611199565b61116988886000611cfd565b50905080151561117857610d74565b611196816109dd6111898b8b611d44565b889063ffffffff611eb116565b91505b818611156111af57600193508186039250610d74565b506000979490039550929350505050565b600554600090600160a060020a031633146111f05760405160e560020a62461bcd028152600401610ad190613514565b5060013a6111fd816120e5565b50949350505050565b6000806000611216868686611cfd565b9150915060008211801561123257508315806112325750600081115b156112405760019250611245565b600092505b50509392505050565b60055460009081908190600160a060020a031633146112825760405160e560020a62461bcd028152600401610ad190613514565b60105460208701513a91600160a060020a039182169116146112fc5760105460208801516112bb91600160a060020a0316906000611cfd565b5060105460208901519193506112f59184916109dd916112e491600160a060020a031690611d44565b60a08b01519063ffffffff611eb116565b9250611304565b8660a0015192505b60085460ff16158061131857506007548310155b15156113395760405160e560020a62461bcd028152600401610ad190613564565b61014087015160009081526012602052604090208390556001935061135d816120e5565b50505095945050505050565b600e5460ff1681565b60005b815181101561100d57818181518110151561138c57fe5b90602001906020020151600160a060020a031663313ce5676040518163ffffffff1660e060020a028152600401602060405180830381600087803b1580156113d357600080fd5b505af11580156113e7573d6000803e3d6000fd5b505050506040513d601f19601f8201168201806040525061140b9190810190612faf565b60ff1660066000848481518110151561142057fe5b6020908102909101810151600160a060020a0316825281019190915260400160002055600101611375565b6004546101009004600160a060020a0316331461146757600080fd5b600b5481141561147657600080fd5b600b55565b600a5481565b6004546101009004600160a060020a0316331461149d57600080fd5b600454604051610100909104600160a060020a0316907ff8df31144d9c2f0f6b59d69b8b98abd5459d07f2742c4df920b25aae33c6482090600090a26004805474ffffffffffffffffffffffffffffffffffffffff0019169055565b6004546101009004600160a060020a0316331461151557600080fd5b600160a060020a038116158015906115405750600454600160a060020a038281166101009092041614155b15156115615760405160e560020a62461bcd028152600401610ad190613524565b600554604051600160a060020a038084169216907f275474e6a50395ffcbf8e9ecf8250fc1a6baa73c802ea8809292f5021c9980bf90600090a36005805473ffffffffffffffffffffffffffffffffffffffff1916600160a060020a0392909216919091179055565b60045460ff1681565b601154600160a060020a031681565b600554600090600160a060020a031633146116125760405160e560020a62461bcd028152600401610ad190613514565b5060013a610dd3816120e5565b600554600090600160a060020a0316331461164f5760405160e560020a62461bcd028152600401610ad190613514565b600e5460ff16156116715761166a84848460ff60020a6121bd565b905061168c565b60405160e560020a62461bcd028152600401610ad1906134e4565b9392505050565b60035481565b6004546101009004600160a060020a031633146116b557600080fd5b808210156116c257600080fd5b600c91909155600d55565b6004546101009004600160a060020a031633146116e957600080fd5b600e54600160a060020a0382811661010090920416148015906117145750600160a060020a03811615155b151561171f57600080fd5b600e8054600160a060020a039092166101000274ffffffffffffffffffffffffffffffffffffffff0019909216919091179055565b6004546101009004600160a060020a0316331461177057600080fd5b6009548114158015611783575060648111155b151561178e57600080fd5b600955565b6004546101009004600160a060020a031681565b60025481565b6005546000908190600160a060020a031633146117df5760405160e560020a62461bcd028152600401610ad190613514565b3a6117fa60646109dd60095489611eb190919063ffffffff16565b602089015190925061181c9088611817898663ffffffff611efc16565b61209f565b151561183d5760405160e560020a62461bcd028152600401610ad1906134b4565b84801561185d57506010546020890151600160a060020a03908116911614155b801561187c57506011546020890151600160a060020a03908116911614155b15611897576118958860200151833060ff60020a612367565b505b600192506118a4816120e5565b505095945050505050565b600554600090600160a060020a031633146118df5760405160e560020a62461bcd028152600401610ad190613514565b60e08401513a906118fe90670de0b6b3a764000063ffffffff611eb116565b61192486600001518660400151876020015188606001518960c001518a60a00151610977565b116119445760405160e560020a62461bcd028152600401610ad190613554565b60019150610fbb816120e5565b60005481565b600d5481565b6004546101009004600160a060020a0316331461197957600080fd5b600a5481141561198857600080fd5b600a55565b60006119a782670de0b6b3a764000063ffffffff611eb116565b6119b5898989898989610977565b11159a9950505050505050505050565b6004546101009004600160a060020a031633146119e157600080fd5b600e5460ff16151581151514611a0057600e805460ff19168215151790555b50565b600554600090600160a060020a03163314611a335760405160e560020a62461bcd028152600401610ad190613514565b611a4384848460ff60020a6121bd565b949350505050565b600b5481565b6004546101009004600160a060020a03163314611a6d57600080fd5b600181118015611a7f57506001548114155b1515611a8a57600080fd5b600155565b6004546101009004600160a060020a03163314611aab57600080fd5b600f54600160a060020a03828116911614801590611ad15750600160a060020a03811615155b1515611adc57600080fd5b600f805473ffffffffffffffffffffffffffffffffffffffff1916600160a060020a0392909216919091179055565b601354600160a060020a031681565b6004546101009004600160a060020a03163314611b3657600080fd5b600054811415611b4557600080fd5b600055565b600554600160a060020a031681565b60075481565b60085460ff1681565b6004546101009004600160a060020a03163314611b8457600080fd5b601054600160a060020a03828116911614801590611baa5750600160a060020a03811615155b1515611bb557600080fd5b6010805473ffffffffffffffffffffffffffffffffffffffff1916600160a060020a0392909216919091179055565b6004546101009004600160a060020a03163314611c0057600080fd5b600160a060020a03811615801590611c265750600554600160a060020a03828116911614155b1515611c475760405160e560020a62461bcd028152600401610ad190613544565b600454604051600160a060020a0380841692610100900416907f8be0079c531659141344cd1fd0a4f28419497f9722a3daafe3b4186f6b6457e090600090a360048054600160a060020a039092166101000274ffffffffffffffffffffffffffffffffffffffff0019909216919091179055565b6004546000906101009004600160a060020a03163314611cda57600080fd5b611a4384848461209f565b60126020526000908152604090205481565b60095481565b60008083600160a060020a031685600160a060020a03161415611d2d5750670de0b6b3a764000090506000611d3c565b50670de0b6b3a7640000905060005b935093915050565b600160a060020a03821660009081526006602052604081205481811515611de15784600160a060020a031663313ce5676040518163ffffffff1660e060020a028152600401602060405180830381600087803b158015611da357600080fd5b505af1158015611db7573d6000803e3d6000fd5b505050506040513d601f19601f82011682018060405250611ddb9190810190612faf565b60ff1691505b50600160a060020a038316600090815260066020526040902054801515611e7e5783600160a060020a031663313ce5676040518163ffffffff1660e060020a028152600401602060405180830381600087803b158015611e4057600080fd5b505af1158015611e54573d6000803e3d6000fd5b505050506040513d601f19601f82011682018060405250611e789190810190612faf565b60ff1690505b818110611e9c57611e926012838303611efc565b600a0a9250611ea9565b611e926012828403611eef565b505092915050565b6000821515611ec257506000610e85565b50818102818382811515611ed257fe5b0414610e8557fe5b60008183811515611ee757fe5b049392505050565b81810182811015610e8557fe5b600082821115611f0857fe5b50900390565b6000808080851115611f7757601054600160a060020a0388811691161415611f3857849150611f77565b601054611f5090600160a060020a0316886000611cfd565b50601054909150611f749082906109dd9061118990600160a060020a03168b611d44565b91505b611fc18887308715611fba57611fb5611fa860646109dd600a54610a7e600054600b54611eb190919063ffffffff16565b879063ffffffff611eef16565b611fbc565b855b612367565b98975050505050505050565b6000838210611fdc5783611fde565b815b6013546040517f94f5bd6e000000000000000000000000000000000000000000000000000000008152919250600160a060020a0316906394f5bd6e9061202c90889087908690600401613447565b602060405180830381600087803b15801561204657600080fd5b505af115801561205a573d6000803e3d6000fd5b505050506040513d601f19601f8201168201806040525061207e9190810190612aab565b1515611a435760405160e560020a62461bcd028152600401610ad190613574565b60006120ac848484612371565b506001949350505050565b8215806120c2575081155b156120cc576120df565b5a830392506120dd8484848461243c565b505b50505050565b6001546002111561210b5760405160e560020a62461bcd028152600401610ad1906134f4565b600054811180156121345750612130612128600254600054611eb1565b600354611eef565b8110155b1561213e57611a00565b61217b6121606001546001018381151561215457fe5b04600202600054611eef565b60015460010160005481151561217257fe5b04600202611efc565b60005550565b6000813031811115612191575030315b604051600160a060020a0385169082156108fc029083906000818181858888f198975050505050505050565b60008084600160a060020a031686600160a060020a031614156122495760ff60020a8310156121ee578291506121f2565b8391505b8383101561220257829150612206565b8391505b600e546122239086906101009004600160a060020a03168461209f565b15156122445760405160e560020a62461bcd028152600401610ad1906134c4565b6111fd565b61225586866000610e8b565b5090506122756122658787611d44565b6109dd868463ffffffff611eb116565b915082821115612283578291505b60135461229b908790600160a060020a03168661209f565b50601354600e546040517f94f5bd6e000000000000000000000000000000000000000000000000000000008152600160a060020a03928316926394f5bd6e926122f4928a92610100909204909116908790600401613447565b602060405180830381600087803b15801561230e57600080fd5b505af1158015612322573d6000803e3d6000fd5b505050506040513d601f19601f820116820180604052506123469190810190612aab565b15156111fd5760405160e560020a62461bcd028152600401610ad190613574565b5060009392505050565b6040517fa9059cbb000000000000000000000000000000000000000000000000000000008152600090600160a060020a0385169063a9059cbb906123bb908690869060040161346f565b600060405180830381600087803b1580156123d557600080fd5b505af11580156123e9573d6000803e3d6000fd5b505050503d60008114612403576020811461240d57600080fd5b6000199150612419565b60206000803e60005191505b5080151561168c5760405160e560020a62461bcd028152600401610ad190613534565b60008082151561244b57606492505b61246460646109dd85610a7e898963ffffffff611eb116565b60045490915060ff16156124f657604051600160a060020a0387169082156108fc029083906000818181858888f193505050501580156124a8573d6000803e3d6000fd5b5085600160a060020a03167f1bcea78faedb4d77b49cf6f6133bd3c9c0ff6e43d361bf2c8da4ac26f3481a0186868460016040516124e994939291906135b0565b60405180910390a2612565565b85600160a060020a03167f1bcea78faedb4d77b49cf6f6133bd3c9c0ff6e43d361bf2c8da4ac26f3481a018686848a600160a060020a03166108fc879081150290604051600060405180830381858888f1935050505060405161255c94939291906135b0565b60405180910390a25b50600195945050505050565b6000610e828235613636565b6000601f8201831361258e57600080fd5b81356125a161259c82613615565b6135ee565b915081818352602084019350602081019050838560208402820111156125c657600080fd5b60005b838110156125f257816125dc8882612620565b84525060209283019291909101906001016125c9565b5050505092915050565b6000610e828235613642565b6000610e828251613642565b6000610e828235613647565b6000610e82823561364a565b600060c0828403121561263e57600080fd5b61264860c06135ee565b905060006126568484612571565b825250602061266784848301612571565b602083015250604061267b84828501612614565b604083015250606061268f84828501612614565b60608301525060806126a384828501612614565b60808301525060a06126b784828501612614565b60a08301525092915050565b600061014082840312156126d657600080fd5b6126e16101406135ee565b905060006126ef8484612571565b825250602061270084848301612571565b602083015250604061271484828501612571565b604083015250606061272884828501612571565b606083015250608061273c84828501612614565b60808301525060a061275084828501612614565b60a08301525060c061276484828501612614565b60c08301525060e061277884828501612614565b60e08301525061010061278d84828501612614565b610100830152506101206127a384828501612614565b6101208301525092915050565b600061016082840312156127c357600080fd5b6127ce6101606135ee565b905060006127dc8484612571565b82525060206127ed84848301612571565b602083015250604061280184828501612571565b604083015250606061281584828501612614565b606083015250608061282984828501612614565b60808301525060a061283d84828501612614565b60a08301525060c061285184828501612614565b60c08301525060e061286584828501612614565b60e08301525061010061287a84828501612614565b61010083015250610120612890848285016125fc565b610120830152506101406128a684828501612614565b6101408301525092915050565b6000610e828251613647565b6000610e828251613655565b6000602082840312156128dd57600080fd5b6000611a438484612571565b60008060008060008060c0878903121561290257600080fd5b600061290e8989612571565b965050602061291f89828a01612571565b955050604061293089828a01612571565b945050606061294189828a01612614565b935050608061295289828a01612614565b92505060a061296389828a01612614565b9150509295509295509295565b60008060006060848603121561298557600080fd5b60006129918686612571565b93505060206129a286828701612571565b92505060406129b386828701612614565b9150509250925092565b600080600080608085870312156129d357600080fd5b60006129df8787612571565b94505060206129f087828801612571565b9350506040612a0187828801612614565b9250506060612a1287828801612614565b91505092959194509250565b60008060408385031215612a3157600080fd5b6000612a3d8585612571565b9250506020612a4e85828601612614565b9150509250929050565b600060208284031215612a6a57600080fd5b813567ffffffffffffffff811115612a8157600080fd5b611a438482850161257d565b600060208284031215612a9f57600080fd5b6000611a4384846125fc565b600060208284031215612abd57600080fd5b6000611a438484612608565b60008060008060008060008060006101208a8c031215612ae857600080fd5b6000612af48c8c612614565b9950506020612b058c828d01612571565b9850506040612b168c828d01612571565b9750506060612b278c828d01612571565b9650506080612b388c828d01612571565b95505060a0612b498c828d01612614565b94505060c0612b5a8c828d01612614565b93505060e0612b6b8c828d01612614565b925050610100612b7d8c828d01612614565b9150509295985092959850929598565b600060208284031215612b9f57600080fd5b6000611a438484612620565b6000806000806101a08587031215612bc257600080fd5b6000612bce87876126c3565b945050610140612be087828801612571565b935050610160612bf287828801612571565b925050610180612a1287828801612614565b60008060008060006101c08688031215612c1d57600080fd5b6000612c2988886126c3565b955050610140612c3b88828901612571565b945050610160612c4d88828901612614565b935050610180612c5f888289016125fc565b9250506101a0612c7188828901612614565b9150509295509295909350565b60008060008060006101c08688031215612c9757600080fd5b6000612ca388886126c3565b955050610140612cb588828901612571565b945050610160612cc788828901612614565b935050610180612c5f88828901612614565b60008060008060006103a08688031215612cf257600080fd5b6000612cfe88886126c3565b955050610140612d108882890161262c565b945050610200612d22888289016127b0565b935050610360612d3488828901612571565b925050610380612c7188828901612614565b6000806102a08385031215612d5a57600080fd5b6000612d6685856126c3565b925050610140612a4e858286016127b0565b60008060008060006103008688031215612d9157600080fd5b6000612d9d88886126c3565b955050610140612daf888289016127b0565b9450506102a0612dc188828901612571565b9350506102c0612dd3888289016125fc565b9250506102e0612c7188828901612614565b6000806000806102e08587031215612dfc57600080fd5b6000612e0887876126c3565b945050610140612e1a878288016127b0565b9350506102a0612e2c87828801612571565b9250506102c0612a1287828801612614565b60008060006102c08486031215612e5457600080fd5b6000612e6086866126c3565b935050610140612e72868287016127b0565b9250506102a06129b386828701612614565b6000806000806102e08587031215612e9b57600080fd5b6000612ea787876126c3565b945050610140612eb9878288016127b0565b9350506102a0612ecb87828801612614565b9250506102c0612a12878288016125fc565b6000806000806102e08587031215612ef457600080fd5b6000612f0087876126c3565b945050610140612f12878288016127b0565b9350506102a0612e2c87828801612614565b600060208284031215612f3657600080fd5b6000611a438484612614565b600060208284031215612f5457600080fd5b6000611a4384846128b3565b60008060408385031215612f7357600080fd5b6000612f7f8585612614565b9250506020612a4e858286016125fc565b60008060408385031215612fa357600080fd5b6000612a3d8585612614565b600060208284031215612fc157600080fd5b6000611a4384846128bf565b612fd681613636565b82525050565b612fd681613642565b612fd68161364a565b603081527f425a784f7261636c653a3a646964506179496e7465726573743a205f7472616e60208201527f73666572546f6b656e206661696c656400000000000000000000000000000000604082015260600190565b602e81527f546573744e65744f7261636c653a3a5f646f54726164653a205f7472616e736660208201527f6572546f6b656e206661696c6564000000000000000000000000000000000000604082015260600190565b603381527f425a784f7261636c653a3a70726f63657373436f6c6c61746572616c3a205f7460208201527f72616e73666572546f6b656e206661696c656400000000000000000000000000604082015260600190565b601b81527f4d616e75616c2074726164696e672069732064697361626c65642e0000000000602082015260400190565b600e81527f656d61506572696f6473203c2032000000000000000000000000000000000000602082015260400190565b605f81527f425a784f7261636c653a3a70726f63657373436f6c6c61746572616c3a20636f60208201527f6c6c61746572616c546f6b656e42616c616e6365203c206c6f616e506f73697460408201527f696f6e2e636f6c6c61746572616c546f6b656e416d6f756e7446696c6c656400606082015260800190565b602981527f6f6e6c7920625a7820636f6e7472616374732063616e2063616c6c207468697360208201527f2066756e6374696f6e0000000000000000000000000000000000000000000000604082015260600190565b602281527f7472616e73666572425a784f776e6572736869703a3a756e617574686f72697a60208201527f6564000000000000000000000000000000000000000000000000000000000000604082015260600190565b601481527f65697032305472616e73666572206661696c6564000000000000000000000000602082015260400190565b601f81527f7472616e736665724f776e6572736869703a3a756e617574686f72697a656400602082015260400190565b603781527f425a784f7261636c653a3a6469645472616465506f736974696f6e3a2074726160208201527f6465207472696767657273206c69717569646174696f6e000000000000000000604082015260600190565b602681527f636f6c6c61746572616c2062656c6f77206d696e696d756d20666f7220425a7860208201527f4f7261636c650000000000000000000000000000000000000000000000000000604082015260600190565b602581527f546573744e65744f7261636c653a3a5f646f54726164653a207472616465206660208201527f61696c6564000000000000000000000000000000000000000000000000000000604082015260600190565b602c81527f2169734c69717569646174696f6e202626206c6f616e546f6b656e416d6f756e60208201527f744e6565646564203d3d20300000000000000000000000000000000000000000604082015260600190565b612fd681613647565b60208101610e858284612fcd565b606081016134558286612fcd565b6134626020830185612fcd565b611a436040830184613430565b6040810161347d8285612fcd565b61168c6020830184613430565b60208101610e858284612fdc565b6040810161347d8285612fdc565b60208101610e858284612fe5565b60208082528101610e8581612fee565b60208082528101610e8581613044565b60208082528101610e858161309a565b60208082528101610e85816130f0565b60208082528101610e8581613120565b60208082528101610e8581613150565b60208082528101610e85816131cc565b60208082528101610e8581613222565b60208082528101610e8581613278565b60208082528101610e85816132a8565b60208082528101610e85816132d8565b60208082528101610e858161332e565b60208082528101610e8581613384565b60208082528101610e85816133da565b60208101610e858284613430565b6040810161347d8285613430565b608081016135be8287613430565b6135cb6020830186613430565b6135d86040830185613430565b6135e56060830184612fdc565b95945050505050565b60405181810167ffffffffffffffff8111828210171561360d57600080fd5b604052919050565b600067ffffffffffffffff82111561362c57600080fd5b5060209081020190565b600160a060020a031690565b151590565b90565b6000610e8582613636565b60ff16905600a265627a7a723058203f24f6caa22ebab2d1d8eeb8aec39491cb8bbb4ce380937b1d87c9f2439f94396c6578706572696d656e74616cf50037",
  "source": "/**\r\n * Copyright 20172018, bZeroX, LLC. All Rights Reserved.\r\n * Licensed under the Apache License, Version 2.0.\r\n */\r\n\r\npragma solidity 0.4.24;\r\npragma experimental ABIEncoderV2;\r\n\r\nimport \"../../oracle/BZxOracle.sol\";\r\n\r\n\r\ncontract Faucet {\r\n    function oracleExchange(\r\n        address getToken,\r\n        address receiver,\r\n        uint getTokenAmount)\r\n        public\r\n        returns (bool);\r\n}\r\n\r\n\r\ncontract TestNetOracle is BZxOracle {\r\n    using SafeMath for uint256;\r\n\r\n    address public faucetContract;\r\n\r\n    constructor(\r\n        address _vaultContract,\r\n        address _kyberContract,\r\n        address _wethContract,\r\n        address _bZRxTokenContract)\r\n        public\r\n        BZxOracle(\r\n            _vaultContract,\r\n            _kyberContract,\r\n            _wethContract,\r\n            _bZRxTokenContract)\r\n        payable\r\n    {}\r\n\r\n    function() public payable {} // solhint-disable-line no-empty-blocks\r\n\r\n    /*\r\n    * Owner functions\r\n    */\r\n\r\n    function setFaucetContractAddress(\r\n        address newAddress) \r\n        public\r\n        onlyOwner\r\n    {\r\n        require(newAddress != faucetContract && newAddress != address(0));\r\n        faucetContract = newAddress;\r\n    }\r\n\r\n    /*\r\n    * Internal functions\r\n    */\r\n\r\n    function _getExpectedRate(\r\n        address sourceTokenAddress,\r\n        address destTokenAddress,\r\n        uint /* sourceTokenAmount */)\r\n        internal\r\n        view \r\n        returns (uint expectedRate, uint slippageRate)\r\n    {\r\n        if (sourceTokenAddress == destTokenAddress) {\r\n            expectedRate = 10**18;\r\n            slippageRate = 0;\r\n        } else {\r\n            expectedRate = 10**18;\r\n            //expectedRate = (uint(block.blockhash(block.number-1)) % 100 + 1).mul(10**18);\r\n            slippageRate = 0;\r\n        }\r\n    }\r\n\r\n    function _doTrade(\r\n        address sourceTokenAddress,\r\n        address destTokenAddress,\r\n        uint sourceTokenAmount,\r\n        uint maxDestTokenAmount)\r\n        internal\r\n        returns (uint destTokenAmount)\r\n    {\r\n        if (sourceTokenAddress == destTokenAddress) {\r\n            if (maxDestTokenAmount < MAX_FOR_KYBER) {\r\n                destTokenAmount = maxDestTokenAmount;\r\n            } else {\r\n                destTokenAmount = sourceTokenAmount;\r\n            }\r\n\r\n            if (maxDestTokenAmount < sourceTokenAmount) {\r\n                destTokenAmount = maxDestTokenAmount;\r\n            } else {\r\n                destTokenAmount = sourceTokenAmount;\r\n            }\r\n\r\n            if (!_transferToken(\r\n                destTokenAddress,\r\n                vaultContract,\r\n                destTokenAmount)) {\r\n                revert(\"TestNetOracle::_doTrade: _transferToken failed\");\r\n            }\r\n        } else {\r\n            (uint tradeRate,) = getTradeData(sourceTokenAddress, destTokenAddress, 0);\r\n            destTokenAmount = sourceTokenAmount.mul(tradeRate).div(_getDecimalPrecision(sourceTokenAddress, destTokenAddress));\r\n            if (destTokenAmount > maxDestTokenAmount) {\r\n                destTokenAmount = maxDestTokenAmount;\r\n            }\r\n            _transferToken(\r\n                sourceTokenAddress,\r\n                faucetContract,\r\n                sourceTokenAmount);\r\n            require(Faucet(faucetContract).oracleExchange(\r\n                destTokenAddress,\r\n                vaultContract,\r\n                destTokenAmount), \"TestNetOracle::_doTrade: trade failed\");\r\n        }\r\n    }\r\n\r\n    function _doTradeForWeth(\r\n        address /*sourceTokenAddress*/,\r\n        uint /* sourceTokenAmount */,\r\n        address /*receiver*/,\r\n        uint /* destEthAmountNeeded */)\r\n        internal\r\n        returns (uint destTokenAmountReceived)\r\n    {\r\n        destTokenAmountReceived = 0;//destEthAmountNeeded < sourceTokenAmount ? destEthAmountNeeded : sourceTokenAmount;\r\n    }\r\n\r\n    function _doTradeWithWeth(\r\n        address destTokenAddress,\r\n        uint sourceEthAmount,\r\n        address receiver,\r\n        uint destTokenAmountNeeded)\r\n        internal\r\n        returns (uint destTokenAmountReceived)\r\n    {\r\n        destTokenAmountReceived = destTokenAmountNeeded < sourceEthAmount ? destTokenAmountNeeded : sourceEthAmount;\r\n        require(Faucet(faucetContract).oracleExchange(\r\n            destTokenAddress,\r\n            receiver,\r\n            destTokenAmountReceived), \"TestNetOracle::_doTrade: trade failed\");\r\n    }\r\n}\r\n",
  "sourcePath": "C:\\Users\\tcb\\Desktop\\__ToCopy\\bZx\\repos\\monorepo\\packages\\contracts\\contracts\\tokens\\testing\\TestNetOracle.sol",
  "compiler": {
    "name": "solc",
    "version": "0.4.24+commit.e67f0147.Emscripten.clang"
  },
  "schemaVersion": "2.0.1",
  "updatedAt": "2018-09-26T14:17:34.603Z"
}